:020000040800F2
:100000000050002019170008A1160008A9160008C2
:10001000B1160008B9160008C1160008000000005B
:10002000000000000000000000000000C9160008E9
:10003000D516000800000000E1160008ED160008C3
:1000400061170008611700086117000861170008B0
:1000500061170008611700086117000861170008A0
:100060006117000861170008611700086117000890
:100070006117000861170008611700086117000880
:100080006117000861170008611700086117000870
:100090006117000861170008611700086117000860
:1000A0006117000861170008611700086117000850
:1000B0006117000861170008611700086117000840
:1000C0006117000861170008611700086117000830
:1000D00061170008F9160008611700086117000889
:1000E0006117000861170008611700080000000090
:1000F0000000000000000000000000000000000000
:0C01000000000000000000005FF808F1A3
:10010C0010B5054C237833B9044B13B10448AFF345
:10011C0000800123237010BD14000020000000009B
:10012C004C52000808B5034B1BB103490348AFF30D
:10013C00008008BD00000000180000204C52000890
:10014C0081F0004102E000BF83F0004330B54FEA7C
:10015C0041044FEA430594EA050F08BF90EA020FE9
:10016C001FBF54EA000C55EA020C7FEA645C7FEA7C
:10017C00655C00F0E2804FEA5454D4EB5555B8BF9F
:10018C006D420CDD2C4480EA020281EA030382EA10
:10019C00000083EA010180EA020281EA0303362DA2
:1001AC0088BF30BD11F0004F4FEA01314FF4801C75
:1001BC004CEA113102D0404261EB410113F0004F87
:1001CC004FEA03334CEA133302D0524263EB43033E
:1001DC0094EA050F00F0A780A4F10104D5F1200EDC
:1001EC000DDB02FA0EFC22FA05F2801841F1000137
:1001FC0003FA0EF2801843FA05F359410EE0A5F10B
:10020C0020050EF1200E012A03FA0EFC28BF4CF03B
:10021C00020C43FA05F3C01851EBE37101F00045F1
:10022C0007D54FF0000EDCF1000C7EEB00006EEBFE
:10023C000101B1F5801F1BD3B1F5001F0CD3490888
:10024C005FEA30004FEA3C0C04F101044FEA4452DF
:10025C0012F5800F80F09A80BCF1004F08BF5FEA66
:10026C00500C50F1000041EB045141EA050130BD46
:10027C005FEA4C0C404141EB0101013C28BFB1F558
:10028C00801FE9D291F0000F04BF01460020B1FAA3
:10029C0081F308BF2033A3F10B03B3F120020CDA76
:1002AC000C3208DD02F1140CC2F10C0201FA0CF054
:1002BC0021FA02F10CE002F11402D8BFC2F1200CB9
:1002CC0001FA02F120FA0CFCDCBF41EA0C0190406F
:1002DC00E41AA2BF01EB0451294330BD6FEA0404B8
:1002EC001F3C1CDA0C340EDC04F11404C4F12002A3
:1002FC0020FA04F001FA02F340EA030021FA04F3B5
:10030C0045EA030130BDC4F10C04C4F1200220FA0B
:10031C0002F001FA04F340EA0300294630BD21FA49
:10032C0004F0294630BD94F0000F83F4801306BF0F
:10033C0081F480110134013D4EE77FEA645C18BF03
:10034C007FEA655C29D094EA050F08BF90EA020F9A
:10035C0005D054EA000C04BF1946104630BD91EA92
:10036C00030F1EBF0021002030BD5FEA545C05D195
:10037C004000494128BF41F0004130BD14F58004D4
:10038C003CBF01F5801130BD01F0004545F0FE4148
:10039C0041F470014FF0000030BD7FEA645C1ABF7D
:1003AC00194610467FEA655C1CBF0B46024650EAB4
:1003BC00013406BF52EA033591EA030F41F40021E0
:1003CC0030BD00BF90F0000F04BF0021704730B566
:1003DC004FF4806404F132044FF000054FF000013B
:1003EC0050E700BF90F0000F04BF0021704730B5FC
:1003FC004FF4806404F1320410F0004548BF4042D1
:10040C004FF000013EE700BF42004FEAE2014FEA25
:10041C0031014FEA02701FBF12F07F4393F07F4F00
:10042C0081F06051704732F07F4208BF704793F003
:10043C007F4F04BF41F40021704730B54FF4607416
:10044C0001F0004521F000411CE700BF50EA010219
:10045C0008BF704730B54FF000050AE050EA0102C2
:10046C0008BF704730B511F0004502D5404261EB32
:10047C0041014FF4806404F132045FEA915C3FF473
:10048C00D8AE4FF003025FEADC0C18BF03325FEA10
:10049C00DC0C18BF033202EBDC02C2F1200300FAC1
:1004AC0003FC20FA02F001FA03FE40EA0E0021FAE6
:1004BC0002F11444BDE600BF70B54FF0FF0C4CF4D4
:1004CC00E06C1CEA11541DBF1CEA135594EA0C0F86
:1004DC0095EA0C0F00F0DEF82C4481EA030621EAC1
:1004EC004C5123EA4C5350EA013518BF52EA0335FC
:1004FC0041F4801143F4801338D0A0FB02CE4FF0AE
:10050C000005E1FB02E506F00042E0FB03E54FF0DD
:10051C000006E1FB03569CF0000F18BF4EF0010ED5
:10052C00A4F1FF04B6F5007F64F5407404D25FEAD1
:10053C004E0E6D4146EB060642EAC62141EA555184
:10054C004FEAC52040EA5E504FEACE2EB4F1FD0CC6
:10055C0088BFBCF5E06F1ED8BEF1004F08BF5FEA44
:10056C00500E50F1000041EB045170BD06F00046F6
:10057C0046EA010140EA020081EA0301B4EB5C04A3
:10058C00C2BFD4EB0C0541EA045170BD41F480119B
:10059C004FF0000E013C00F3AB8014F1360FDEBFC0
:1005AC00002001F0004170BDC4F10004203C35DA9C
:1005BC000C341BDC04F11404C4F1200500FA05F31F
:1005CC0020FA04F001FA05F240EA020001F00042C0
:1005DC0021F0004110EBD37021FA04F642EB060136
:1005EC005EEA430E08BF20EAD37070BDC4F10C0460
:1005FC00C4F1200500FA04F320FA05F001FA04F224
:10060C0040EA020001F0004110EBD37041F100010F
:10061C005EEA430E08BF20EAD37070BDC4F120051A
:10062C0000FA05F24EEA020E20FA04F301FA05F282
:10063C0043EA020321FA04F001F0004121FA04F22A
:10064C0020EA020000EBD3705EEA430E08BF20EAFA
:10065C00D37070BD94F0000F0FD101F00046400034
:10066C0041EB010111F4801F08BF013CF7D041EAB6
:10067C00060195F0000F18BF704703F000465200BA
:10068C0043EB030313F4801F08BF013DF7D043EA8B
:10069C000603704794EA0C0F0CEA135518BF95EA41
:1006AC000C0F0CD050EA410618BF52EA4306D1D1C8
:1006BC0081EA030101F000414FF0000070BD50EAE7
:1006CC00410606BF1046194652EA430619D094EA71
:1006DC000C0F02D150EA013613D195EA0C0F05D15B
:1006EC0052EA03361CBF104619460AD181EA0301AF
:1006FC0001F0004141F0FE4141F470014FF0000067
:10070C0070BD41F0FE4141F4780170BD70B54FF001
:10071C00FF0C4CF4E06C1CEA11541DBF1CEA135581
:10072C0094EA0C0F95EA0C0F00F0A7F8A4EB050463
:10073C0081EA030E52EA03354FEA013100F088805A
:10074C004FEA03334FF0805545EA131343EA126323
:10075C004FEA022245EA111545EA10654FEA0026D8
:10076C000EF000419D4208BF964244F1FD0404F591
:10077C00407402D25B084FEA3202B61A65EB0305ED
:10078C005B084FEA32024FF480104FF4002CB6EBAA
:10079C00020E75EB030E22BFB61A754640EA0C002A
:1007AC005B084FEA3202B6EB020E75EB030E22BF6A
:1007BC00B61A754640EA5C005B084FEA3202B6EBAB
:1007CC00020E75EB030E22BFB61A754640EA9C006A
:1007DC005B084FEA3202B6EB020E75EB030E22BF3A
:1007EC00B61A754640EADC0055EA060E18D04FEAF8
:1007FC00051545EA16754FEA06164FEAC30343EA98
:10080C0052734FEAC2025FEA1C1CC0D111F4801F64
:10081C000BD141EA00014FF000004FF0004CB6E75D
:10082C0011F4801F04BF01430020B4F1FD0C88BFFC
:10083C00BCF5E06F3FF6AFAEB5EB030C04BFB6EB07
:10084C00020C5FEA500C50F1000041EB045170BDFA
:10085C000EF0004E4EEA113114EB5C04C2BFD4EB27
:10086C000C0541EA045170BD41F480114FF0000EAB
:10087C00013C90E645EA060E8DE60CEA135594EA27
:10088C000C0F08BF95EA0C0F3FF43BAF94EA0C0F2A
:10089C000AD150EA01347FF434AF95EA0C0F7FF49F
:1008AC0025AF104619462CE795EA0C0F06D152EAF3
:1008BC0003353FF4FDAE1046194622E750EA4106D7
:1008CC0018BF52EA43067FF4C5AE50EA41047FF4E8
:1008DC000DAF52EA43057FF4EBAE12E74FEA41024B
:1008EC00B2F1E04324BFB3F5001CDCF1FE5C0DD982
:1008FC0001F0004C4FEAC0024CEA5070B2F1004FCC
:10090C0040EB830008BF20F00100704711F0804FCE
:10091C0021D113F13872BCBF01F00040704741F493
:10092C0080114FEA5252C2F11802C2F1200C10FA97
:10093C000CF320FA02F018BF40F001004FEAC1237B
:10094C004FEAD32303FA0CFC40EA0C0023FA02F31F
:10095C004FEA4303CCE77FEA625307D150EA0133F5
:10096C001EBF4FF0FE4040F44000704701F00040C5
:10097C0040F0FE4040F40000704700BF80F00040A3
:10098C0002E000BF81F0004142001FBF5FEA41035B
:10099C0092EA030F7FEA226C7FEA236C6AD04FEA5B
:1009AC001262D2EB1363C1BFD218414048404140A0
:1009BC00B8BF5B42192B88BF704710F0004F40F452
:1009CC00000020F07F4018BF404211F0004F41F46E
:1009DC00000121F07F4118BF494292EA030F3FD03A
:1009EC00A2F1010241FA03FC10EB0C00C3F120034D
:1009FC0001FA03F100F0004302D5494260EB4000DC
:100A0C00B0F5000F13D3B0F1807F06D340084FEA46
:100A1C00310102F10102FE2A51D2B1F1004F40EB3B
:100A2C00C25008BF20F0010040EA030070474900A3
:100A3C0040EB0000013A28BFB0F5000FEDD2B0FA40
:100A4C0080FCACF1080CB2EB0C0200FA0CF0AABF63
:100A5C0000EBC25052421843BCBFD0401843704701
:100A6C0092F0000F81F4000106BF80F40000013207
:100A7C00013BB5E74FEA41037FEA226C18BF7FEADE
:100A8C00236C21D092EA030F04D092F0000F08BF20
:100A9C000846704790EA010F1CBF0020704712F007
:100AAC007F4F04D1400028BF40F00040704712F146
:100ABC0000723CBF00F50000704700F0004343F0AB
:100ACC00FE4040F4000070477FEA226216BF0846E1
:100ADC007FEA23630146420206BF5FEA412390EAA4
:100AEC00010F40F4800070474FF0000304E000BF9A
:100AFC0010F0004348BF40425FEA000C08BF70474B
:100B0C0043F0964301464FF000001CE050EA01020E
:100B1C0008BF70474FF000030AE000BF50EA010223
:100B2C0008BF704711F0004302D5404261EB410110
:100B3C005FEA010C02BF84460146002043F0B64335
:100B4C0008BFA3F18053A3F50003BCFA8CF2083A5A
:100B5C00A3EBC25310DB01FA02FC634400FA02FC63
:100B6C00C2F12002BCF1004F20FA02F243EB02006A
:100B7C0008BF20F00100704702F1200201FA02FCCC
:100B8C00C2F1200250EA4C0021FA02F243EB0200BF
:100B9C0008BF20EADC7070474FF0FF0C1CEAD05203
:100BAC001EBF1CEAD15392EA0C0F93EA0C0F6FD0C4
:100BBC001A4480EA010C400218BF5FEA41211ED0A2
:100BCC004FF0006343EA501043EA5111A0FB01318E
:100BDC000CF00040B1F5000F3EBF490041EAD37163
:100BEC005B0040EA010062F17F02FD2A1DD8B3F1DF
:100BFC00004F40EBC25008BF20F00100704790F04E
:100C0C00000F0CF0004C08BF49024CEA502040EA9F
:100C1C0051207F3AC2BFD2F1FF0340EAC250704765
:100C2C0040F400004FF00003013A5DDC12F1190FA3
:100C3C00DCBF00F000407047C2F10002410021FA15
:100C4C0002F1C2F1200200FA02FC5FEA310040F12D
:100C5C00000053EA4C0308BF20EADC70704792F0A6
:100C6C00000F00F0004C02BF400010F4000F013ADE
:100C7C00F9D040EA0C0093F0000F01F0004C02BFD9
:100C8C00490011F4000F013BF9D041EA0C018FE748
:100C9C000CEAD15392EA0C0F18BF93EA0C0F0AD04E
:100CAC0030F0004C18BF31F0004CD8D180EA010074
:100CBC0000F00040704790F0000F17BF90F0004F0D
:100CCC00084691F0000F91F0004F14D092EA0C0FEF
:100CDC0001D142020FD193EA0C0F03D14B0218BF82
:100CEC00084608D180EA010000F0004040F0FE40C8
:100CFC0040F40000704740F0FE4040F44000704764
:100D0C004FF0FF0C1CEAD0521EBF1CEAD15392EAE2
:100D1C000C0F93EA0C0F69D0A2EB030280EA010CD2
:100D2C0049024FEA402037D04FF0805343EA11116B
:100D3C0043EA10130CF000408B4238BF5B0042F1C9
:100D4C007D024FF4000C8B4224BF5B1A40EA0C006E
:100D5C00B3EB510F24BFA3EB510340EA5C00B3EBA0
:100D6C00910F24BFA3EB910340EA9C00B3EBD10F8E
:100D7C0024BFA3EBD10340EADC001B0118BF5FEAE0
:100D8C001C1CE0D1FD2A3FF650AF8B4240EBC25009
:100D9C0008BF20F0010070470CF0004C4CEA5020CA
:100DAC007F32C2BFD2F1FF0340EAC250704740F419
:100DBC0000004FF00003013A37E792F0000F00F00B
:100DCC00004C02BF400010F4000F013AF9D040EA89
:100DDC000C0093F0000F01F0004C02BF490011F41D
:100DEC00000F013BF9D041EA0C0195E70CEAD15315
:100DFC0092EA0C0F08D142027FF47DAF93EA0C0FFC
:100E0C007FF470AF084676E793EA0C0F04D14B02DF
:100E1C003FF44CAF08466EE730F0004C18BF31F091
:100E2C00004CCAD130F000427FF45CAF31F000438B
:100E3C007FF43CAF5FE700BF80B584B000AF00F03B
:100E4C008BFC00F0F1F800F0D5F900F0A9F900F0F6
:100E5C0079F900F039F900224FF480515E4801F025
:100E6C009DFC00224FF400515B4801F097FC5B4B5A
:100E7C005B4A1A60594B5B4ADA603B1D00221A60D0
:100E8C005A609A6001230222B821574802F066F991
:100E9C0000F07CFA04237B600123BB600623FB601B
:100EAC003B1D1946514800F0A1FF504800F0B2FD1F
:100EBC004FF0FF314D4800F087FE4C4800F08AFFA0
:100ECC0003461846FFF710FE0346494A136047488D
:100EDC0000F04EFE07237B600123BB600623FB6002
:100EEC003B1D1946414800F081FF404800F092FD3F
:100EFC004FF0FF313D4800F067FE3C4800F06AFFC0
:100F0C0003461846FFF7F0FD03463A4A136037488C
:100F1C0000F02EFE374B1B6837491846FFF73CFE96
:100F2C00034636491846FFF7EBFE03461A46344B88
:100F3C001A60334B1B6833491846FFF72DFE0346E6
:100F4C0031491846FFF7DCFE03461A46234BDA609C
:100F5C00274B1B6828491846FFF71EFE03462749F6
:100F6C001846FFF7CDFE03461A46284B1A60274B4E
:100F7C001B6827491846FFF705FD03462549184607
:100F8C00FFF7BEFE03461A46144B1A6017220C21BB
:100F9C00002000F09DF94FF0FF3301221E491F483D
:100FAC0003F05CFB4FF0FF3310220C491B4803F09D
:100FBC0055FB4FF0FF3301221949184803F04EFB43
:100FCC004FF40051174801F001FC4FF4FA6000F0A7
:100FDC0025FC00BF56E700BF000C014004010020B7
:100FEC007B148E3F8FC23141600000203000002006
:100FFC001401002018010020295C4F4000F07F45AF
:10100C001C0100200000DC420000204120010020D7
:10101C0000002040A4703D3E03000020B4000020DE
:10102C00040000200010014080B594B000AF07F11F
:10103C00280328220021184604F0D6F807F11403DF
:10104C0000221A605A609A60DA601A613B1D002215
:10105C001A605A609A60DA600223BB620123BB6398
:10106C001023FB6300237B6407F12803184602F06E
:10107C0029FD0346002B01D000F006FA0F237B61FB
:10108C000023BB610023FB6100233B6200237B62D6
:10109C0007F114030021184602F096FF0346002BBB
:1010AC0001D000F0F1F902237B600023FB603B1DB3
:1010BC00184603F017F90346002B01D000F0E4F9B1
:1010CC0000BF5037BD4680BD80B584B000AF3B1D1E
:1010DC0000221A605A609A60184B194A1A60174B12
:1010EC0000229A60154B00221A73144B00221A75B9
:1010FC00124B4FF46022DA61104B00225A600F4BF6
:10110C0001221A610D4800F0ADFB0346002B01D003
:10111C0000F0BAF904237B600123BB600623FB605B
:10112C003B1D1946054800F061FE0346002B01D01B
:10113C0000F0AAF900BF1037BD4680BD300000207A
:10114C000024014080B500AF124B134A1A60114BBA
:10115C00124A5A600F4B00229A600E4B0022DA6042
:10116C000C4B4FF480421A610A4B00225A61094B16
:10117C0000229A61074B0022DA61064B00221A62A8
:10118C00044801F03DFB0346002B01D000F07CF934
:10119C0000BF80BD6000002000540040A08601000C
:1011AC0080B500AF114B124A1A60104B4FF4165217
:1011BC005A600E4B00229A600C4B0022DA600B4BEB
:1011CC0000221A61094B0C225A61084B00229A61C9
:1011DC00064B0022DA61054803F0F0F90346002BB8
:1011EC0001D000F051F900BF80BD00BFB400002059
:1011FC000038014080B588B000AF07F11003002221
:10120C001A605A609A60DA602E4B9B692D4A43F043
:10121C00100393612B4B9B6903F01003FB60FB687D
:10122C00284B9B69274A43F020039361254B9B690C
:10123C0003F02003BB60BB68224B9B69214A43F03F
:10124C00040393611F4B9B6903F004037B607B6871
:10125C001C4B9B691B4A43F008039361194B9B6918
:10126C0003F008033B603B6800224FF40051164822
:10127C0001F094FA00224FF44051144801F08EFA18
:10128C004FF400533B6101237B610023BB610223BC
:10129C00FB6107F1100319460B4801F0FBF84FF402
:1012AC0040533B6101237B610023BB610223FB6143
:1012BC0007F110031946054801F0ECF800BF203780
:1012CC00BD4680BD0010024000100140000C0140E2
:1012DC0080B582B000AF0346FB710B46BB71134661
:1012EC007B71F91D4FF0FF3301220A4803F0B6F968
:1012FC00B91D4FF0FF330122064803F0AFF9791DF9
:10130C004FF0FF330122034803F0A8F900BF083760
:10131C00BD4680BDB400002080B485B000AF7860BD
:10132C000B46FB704FF6FF73FB8123E07B685A1C66
:10133C007A601B781A46FB895340FB8100237B7330
:10134C0015E0FB8903F00103002B0AD0FB895B0835
:10135C00FB81FB8983F4BF4383F07E03DB43FB817A
:10136C0002E0FB895B08FB817B7B01337B737B7B1E
:10137C00072BE6D9FB785A1EFA70002BD6D1FB89C5
:10138C0018461437BD4680BC7047000080B586B047
:10139C0002AF642300930323364AB821364801F088
:1013AC0073FB642300930823344AB921324801F0BB
:1013BC0069FC324BDB791B02FB60304B9B791A4684
:1013CC00FB681344FB6006212C48FFF7A5FF03467E
:1013DC001A46FB68934241D1284B1B791B0203F43C
:1013EC00FE43264A52791344BB60B868FEF7EAFF05
:1013FC004FF00002224BFFF789F902460B461046CC
:10140C001946FFF76BFA03461E4A53601B4B1B79B8
:10141C00DB09DBB2012B04D11A4B5B6883F0004370
:10142C0001E0184B5B68174A5360144B9B781B0206
:10143C00124AD27813447B607868FEF7C3FF4FF0F2
:10144C0000020F4BFFF762F902460B461046194695
:10145C00FFF744FA03460B4A936007E0094B4FF041
:10146C0000025A60074B4FF000029A6000BF103721
:10147C00BD4680BD0000002060000020FC00002064
:10148C00000024400401002080B400AF72B600BFFD
:10149C0000BFFDE780B485B000AF154B9B69144AC3
:1014AC0043F001039361124B9B6903F00103BB6092
:1014BC00BB680F4BDB690E4A43F08053D3610C4B76
:1014CC00DB6903F080537B607B680A4B5B68FB60D5
:1014DC00FB6823F0E063FB60FB6843F00073FB6088
:1014EC00044AFB68536000BF1437BD4680BC70478C
:1014FC00001002400000014080B588B000AF786059
:10150C0007F1100300221A605A609A60DA607B6857
:10151C001B68144A934221D1134B9B69124A43F422
:10152C0000739361104B9B6903F40073FB60FB68C1
:10153C000D4B9B690C4A43F0040393610A4B9B6966
:10154C0003F00403BB60BB6890233B6103237B6106
:10155C0007F110031946054800F09CFF00BF203727
:10156C00BD4680BD0024014000100240000801402F
:10157C0080B588B000AF786007F1100300221A60C4
:10158C005A609A60DA607B681B68154A934223D1D3
:10159C00144B9B69134A43F008039361114B9B69ED
:1015AC0003F00803FB60FB68C0233B6112237B61E3
:1015BC000323FB6107F1100319460B4800F06AFF87
:1015CC00084BDB69074A43F40013D361054BDB6915
:1015DC0003F40013BB60BB6800BF2037BD4680BD61
:1015EC000054004000100240000C014080B588B04F
:1015FC0000AF786007F1100300221A605A609A60FD
:10160C00DA607B681B68204A934239D11F4B9B6977
:10161C001E4A43F4804393611C4B9B6903F4804343
:10162C00FB60FB68194B9B69184A43F004039361F8
:10163C00164B9B6903F00403BB60BB684FF400734B
:10164C003B6102237B610323FB6107F11003194605
:10165C000F4800F01FFF4FF480633B6100237B6158
:10166C000023BB6107F110031946094800F012FF73
:10167C0000220021252000F024FE252000F03DFE54
:10168C0000BF2037BD4680BD00380140001002402D
:10169C000008014080B400AF00BFFDE780B400AF8C
:1016AC0000BFFDE780B400AF00BFFDE780B400AF22
:1016BC0000BFFDE780B400AF00BFFDE780B400AF12
:1016CC0000BFBD4680BC704780B400AF00BFBD46B4
:1016DC0080BC704780B400AF00BFBD4680BC704773
:1016EC0080B500AF00F07EF800BF80BD80B500AFC4
:1016FC00024803F03FF800BF80BD00BFB4000020DB
:10170C0080B400AF00BFBD4680BC7047FFF7F8FF48
:10171C000B480C490C4A002302E0D458C450043343
:10172C00C4188C42F9D3094A094C002301E0136018
:10173C000432A242FBD303F05FFDFFF77DFB704741
:10174C000000002014000020AC52000814000020FF
:10175C0028010020FEE7000080B500AF084B1B6895
:10176C00074A43F010031360032000F09FFD0F2085
:10177C0000F008F8FFF78EFE0023184680BD00BF6E
:10178C000020024080B582B000AF7860124B1A681E
:10179C00124B1B7819464FF47A73B3FBF1F3B2FB7F
:1017AC00F3F3184600F0B7FD0346002B01D00123DC
:1017BC000EE07B680F2B0AD8002279684FF0FF30BF
:1017CC0000F07FFD064A7B681360002300E00123D4
:1017DC0018460837BD4680BD0800002010000020C8
:1017EC000C00002080B400AF054B1B781A46054B4B
:1017FC001B681344034A136000BFBD4680BC70478E
:10180C00100000202401002080B400AF024B1B68A4
:10181C001846BD4680BC70472401002080B584B0BA
:10182C0000AF7860FFF7F0FFB8607B68FB60FB6887
:10183C00B3F1FF3F05D00A4B1B781A46FB681344E3
:10184C00FB6000BFFFF7E0FF0246BB68D31AFA68E3
:10185C009A42F7D800BF00BF1037BD4680BD00BF0D
:10186C001000002080B586B000AF78600023FB75B7
:10187C0000233B610023BB600023FB607B68002BD3
:10188C0001D10123BEE07B689B68002B7B689B6ABF
:10189C00002B09D17B680022DA627B68002283F876
:1018AC0024207868FFF728FE786800F0F1FB0346E7
:1018BC00FB757B689B6A03F01003002B40F099804A
:1018CC00FB7D002B40F095807B689B6A23F488534A
:1018DC0023F0020343F002027B689A627B685A6829
:1018EC007B68DB691A437B681B7B5B001343BA681C
:1018FC001343BB607B689B68B3F5807F03D07B6828
:10190C009B68012B02D14FF4807300E000233A69ED
:10191C0013433B617B681B7D012B19D17B681B7BBF
:10192C00002B09D17B689B69013B5A033B6913432C
:10193C0043F400633B610BE07B689B6A43F020023D
:10194C007B689A627B68DB6A43F001027B68DA622F
:10195C007B681B685B6823F469417B681B683A6988
:10196C000A435A607B681B689A68284B13407A6854
:10197C001268B9680B4393607B689B68B3F5807FF2
:10198C0003D07B689B68012B04D17B681B69013BEE
:10199C001B05FB607B681B68DB6A23F470017B68AA
:1019AC001B68FA680A43DA627B681B689A68184BF2
:1019BC001340BA689A420BD17B680022DA627B68CA
:1019CC009B6A23F0030343F001027B689A6218E0E0
:1019DC007B689B6A23F0120343F010027B689A62C7
:1019EC007B68DB6A43F001027B68DA620123FB75DA
:1019FC0007E07B689B6A43F010027B689A620123C4
:101A0C00FB75FB7D18461837BD4680BDFDF7E1FF21
:101A1C00FE0E1FFF80B584B000AF78600023FB730F
:101A2C007B6893F82430012B01D1022398E07B686A
:101A3C00012283F82420786800F0D0FA0346FB7367
:101A4C00FB7B002B40F087807B689B6A23F4407300
:101A5C0023F0010343F480727B689A627B681B68F5
:101A6C00414A934205D1414B5B6803F47023002B30
:101A7C0015D17B689B6A23F480127B689A627B6821
:101A8C001B685B6803F48063002B26D07B689B6A21
:101A9C0023F4405343F480527B689A621DE07B68C8
:101AAC009B6A43F480127B689A627B681B682F4A9E
:101ABC00934204D07B681B682B4A93420DD12B4B6D
:101ACC005B6803F48063002B07D07B689B6A23F46C
:101ADC00405343F480527B689A627B689B6A03F4A0
:101AEC008053002B06D07B68DB6A23F006027B68F0
:101AFC00DA6202E07B680022DA627B68002283F8FB
:101B0C0024207B681B686FF002021A607B681B68DC
:101B1C009B6803F46023B3F5602F13D17B681B68BB
:101B2C00114A934205D1114B5B6803F47023002BCF
:101B3C0008D17B681B689A687B681B6842F4A0021A
:101B4C009A600CE07B681B689A687B681B6842F49F
:101B5C0080129A6003E07B68002283F82420FB7BD0
:101B6C0018461037BD4680BD0028014000240140B6
:101B7C0080B584B000AF78600023FB737B6893F86A
:101B8C002430012B01D102231AE07B68012283F857
:101B9C002420786800F07CFA0346FB73FB7B002B57
:101BAC0009D17B689B6A23F4885323F0010343F02B
:101BBC0001027B689A627B68002283F82420FB7BFD
:101BCC0018461037BD4680BD90B587B000AF786021
:101BDC00396000237B610023FB6000233B61FFF72E
:101BEC0013FE78617B681B689B6803F48073002B81
:101BFC000BD07B689B6A43F020027B689A627B68FF
:101C0C00002283F824200123D3E07B681B685B68E7
:101C1C0003F48073002B31D17B681B68DB6A03F4FF
:101C2C007003002B2AD121E03B68B3F1FF3F1DD09C
:101C3C003B68002B07D0FFF7E7FD02467B69D31A00
:101C4C003A689A4212D27B681B681B6803F0020345
:101C5C00002B0BD17B689B6A43F004027B689A6271
:101C6C007B68002283F824200323A2E07B681B6896
:101C7C001B6803F00203002BD6D070E04F4B1C689E
:101C8C00022002F0E5FB0346B4FBF3F27B681B6811
:101C9C0019694B4B0B40002B18D17B681B68D9681A
:101CAC00484B0B40002B11D17B681B681969464BC4
:101CBC000B40002B08D17B681B68D968434B0B4049
:101CCC00002B01D1142320E029231EE07B681B6824
:101CDC0019693D4B0B40002B06D17B681B68D968FA
:101CEC003A4B0B40002B0DD07B681B681969384BA5
:101CFC000B40002B08D17B681B68D968344B0B4018
:101D0C00002B01D1542300E0FC2302FB03F33B61C5
:101D1C0021E03B68B3F1FF3F1AD03B68002B07D0A2
:101D2C00FFF772FD02467B69D31A3A689A420FD2CA
:101D3C00FB683A699A420BD97B689B6A43F00402B0
:101D4C007B689A627B68002283F82420032330E0AE
:101D5C00FB680133FB60FB683A699A42D9D87B680F
:101D6C001B686FF012021A607B689B6A43F4007266
:101D7C007B689A627B681B689B6803F46023B3F5ED
:101D8C00602F15D17B681B7B002B11D17B689B6A64
:101D9C0023F480727B689A627B689B6A03F480539D
:101DAC00002B05D17B689B6A43F001027B689A6229
:101DBC00002318461C37BD4690BD00BF080000200C
:101DCC0024499224244992009224491292244900D5
:101DDC004992240080B483B000AF78607B681B68A4
:101DEC00DB6C18460C37BD4680BC704780B485B0A0
:101DFC0000AF786039600023FB730023BB607B6805
:101E0C0093F82430012B01D10223DCE07B68012202
:101E1C0083F824203B685B68062B1CD87B681B6806
:101E2C00596B3B685A6813469B001344053B1F22B1
:101E3C0002FA03F3DB4319403B6818683B685A68A5
:101E4C0013469B001344053B00FA03F27B681B68A6
:101E5C000A435A633CE03B685B680C2B1CD87B68DC
:101E6C001B68196B3B685A6813469B001344233B51
:101E7C001F2202FA03F3DB4319403B6818683B68E6
:101E8C005A6813469B001344233B00FA03F27B6809
:101E9C001B680A431A631BE07B681B68D96A3B68A2
:101EAC005A6813469B001344413B1F2202FA03F36A
:101EBC00DB4319403B6818683B685A6813469B0023
:101ECC001344413B00FA03F27B681B680A43DA6255
:101EDC003B681B68092B1CD97B681B68D9683B685D
:101EEC001A6813465B0013441E3B072202FA03F3E5
:101EFC00DB4319403B6898683B681A6813465B00E3
:101F0C0013441E3B00FA03F27B681B680A43DA6039
:101F1C0019E07B681B6819693B681A6813465B00FB
:101F2C001344072202FA03F3DB4319403B68986819
:101F3C003B681A6813465B00134400FA03F27B6893
:101F4C001B680A431A613B681B68102B03D03B6863
:101F5C001B68112B32D17B681B681D4A934225D11B
:101F6C007B681B689B6803F40003002B26D17B68FD
:101F7C001B689A687B681B6842F400029A603B6895
:101F8C001B68102B1AD1134B1B68134AA2FB03239B
:101F9C009A0C13469B0013445B00BB6002E0BB68C9
:101FAC00013BBB60BB68002BF9D107E07B689B6AE7
:101FBC0043F020027B689A620123FB737B6800224A
:101FCC0083F82420FB7B18461437BD4680BC704731
:101FDC00002401400800002083DE1B4380B584B040
:101FEC0000AF78600023FB600023BB607B681B683C
:101FFC009B6803F00103012B40D07B681B689A6837
:10200C007B681B6842F001029A601F4B1B681F4AD9
:10201C00A2FB03239B0CBB6002E0BB68013BBB60D3
:10202C00BB68002BF9D1FFF7EFFBF8601FE0FFF75F
:10203C00EBFB0246FB68D31A022B18D97B681B6892
:10204C009B6803F00103012B11D07B689B6A43F062
:10205C0010027B689A627B68DB6A43F001027B6842
:10206C00DA627B68002283F82420012307E07B6876
:10207C001B689B6803F00103012BD8D10023184681
:10208C001037BD4680BD00BF0800002083DE1B4317
:10209C0080B584B000AF78600023FB607B681B6860
:1020AC009B6803F00103012B2ED17B681B689A6897
:1020BC007B681B6822F001029A60FFF7A5FBF860B1
:1020CC001BE0FFF7A1FB0246FB68D31A022B14D9C5
:1020DC007B681B689B6803F00103012B0DD17B68A7
:1020EC009B6A43F010027B689A627B68DB6A43F060
:1020FC0001027B68DA62012307E07B681B689B683E
:10210C0003F00103012BDCD0002318461037BD4629
:10211C0080BD000080B485B000AF78607B6803F0B0
:10212C000703FB600C4BDB68BB60BA684FF6FF0320
:10213C001340BB60FB681A02BB68134343F0BF63D8
:10214C0043F40033BB60044ABB68D36000BF143750
:10215C00BD4680BC704700BF00ED00E080B400AF0E
:10216C00044BDB681B0A03F007031846BD4680BC12
:10217C00704700BF00ED00E080B483B000AF0346B1
:10218C00FB7197F90730002B0BDBFB7903F01F0277
:10219C00064997F907305B09012000FA02F241F871
:1021AC00232000BF0C37BD4680BC704700E100E027
:1021BC0080B483B000AF03463960FB7197F90730E8
:1021CC00002B0ADB3B68DAB20C4997F90730120195
:1021DC00D2B20B4483F800230AE03B68DAB2084918
:1021EC00FB7903F00F03043B1201D2B20B441A76B5
:1021FC0000BF0C37BD4680BC704700BF00E100E05B
:10220C0000ED00E080B489B000AFF860B9607A608E
:10221C00FB6803F00703FB61FB69C3F10703042BA5
:10222C0028BF0423BB61FB690433062B02D9FB696D
:10223C00033B00E000237B614FF0FF32BB6902FAE5
:10224C0003F3DA43BB681A407B699A404FF0FF31C5
:10225C007B6901FA03F3D9437B680B40134318469F
:10226C002437BD4680BC704780B582B000AF786023
:10227C007B68013BB3F1807F01D301230FE00A4A55
:10228C007B68013B53600F214FF0FF30FFF790FF4D
:10229C00054B00229A60044B07221A600023184653
:1022AC000837BD4680BD00BF10E000E080B582B0AD
:1022BC0000AF78607868FFF72DFF00BF0837BD4688
:1022CC0080BD80B586B000AF0346B9607A60FB7301
:1022DC0000237B61FFF742FF78617A68B9687869FF
:1022EC00FFF790FF024697F90F3011461846FFF79B
:1022FC005FFF00BF1837BD4680BD80B582B000AF10
:10230C000346FB7197F907301846FFF735FF00BFFE
:10231C000837BD4680BD80B582B000AF7860786864
:10232C00FFF7A2FF034618460837BD4680BD80B4B0
:10233C0085B000AF78600023FB737B6893F8213085
:10234C00DBB2022B08D07B6804229A637B680022E4
:10235C0083F82020012320E07B681B681A687B68C7
:10236C001B6822F00E021A607B681B681A687B6877
:10237C001B6822F001021A607B681A6C7B68DB6BAD
:10238C00012101FA02F25A607B68012283F82120B4
:10239C007B68002283F82020FB7B18461437BD464F
:1023AC0080BC704780B584B000AF78600023FB73AD
:1023BC007B6893F82130DBB2022B05D07B680422BA
:1023CC009A630123FB7351E07B681B681A687B6876
:1023DC001B6822F00E021A607B681B681A687B6807
:1023EC001B6822F001021A607B681B68224A934228
:1023FC0029D07B681B68214A934222D07B681B68DA
:10240C001F4A93421AD07B681B681E4A934212D013
:10241C007B681B681C4A93420AD07B681B681B4A6A
:10242C00934202D14FF480130EE04FF080730BE017
:10243C004FF4803308E04FF4805305E04FF4807381
:10244C0002E0102300E00123114A53607B68012253
:10245C0083F821207B68002283F820207B685B6B4B
:10246C00002B03D07B685B6B78689847FB7B184626
:10247C001037BD4680BD00BF080002401C00024062
:10248C003000024044000240580002406C00024000
:10249C000000024080B48BB000AF7860396000233C
:1024AC007B6200233B6269E101227B6A02FA03F33F
:1024BC00FB613B681B68FA691340BB61BA69FB6935
:1024CC009A4240F058813B685B689A4A93425ED0CE
:1024DC00984A934275D8984A934258D0964A934258
:1024EC006FD8964A934252D0944A934269D8944AF0
:1024FC0093424CD0924A934263D8924A934246D02C
:10250C00904A93425DD8122B2AD8122B59D801A28B
:10251C0052F823F09B250008752500088725000834
:10252C00C9250008CF250008CF250008CF250008B5
:10253C00CF250008CF250008CF250008CF2500089F
:10254C00CF250008CF250008CF250008CF2500088F
:10255C00CF250008CF2500087D250008912500080F
:10256C00794A934213D02CE03B68DB683B6229E04C
:10257C003B68DB6804333B6224E03B68DB68083370
:10258C003B621FE03B68DB680C333B621AE03B6844
:10259C009B68002B02D104233B6213E03B689B68D1
:1025AC00012B05D108233B627B68FA691A6109E0AB
:1025BC0008233B627B68FA695A6103E000233B62A3
:1025CC0000E000BFBB69FF2B01D87B6801E07B6892
:1025DC0004337B61BB69FF2B02D87B6A9B0002E052
:1025EC007B6A083B9B003B617B691A680F213B6946
:1025FC0001FA03F3DB431A40396A3B6901FA03F32E
:10260C001A437B691A603B685B6803F08053002BAC
:10261C0000F0B1804D4B9B694C4A43F00103936130
:10262C004A4B9B6903F00103BB60BB68484A7B6A59
:10263C009B08023352F82330FB607B6A03F00303E0
:10264C009B000F2202FA03F3DB43FA681340FB6092
:10265C007B68404A934213D07B683F4A93420DD02B
:10266C007B683E4A934207D07B683D4A934201D136
:10267C00032306E0042304E0022302E0012300E02C
:10268C0000237A6A02F0030292009340FA68134323
:10269C00FB602F497B6A9B080233FA6841F82320C0
:1026AC003B685B6803F48013002B06D02D4B9A68B3
:1026BC002C49BB6913438B6006E02A4B9A68BB69B3
:1026CC00DB43284913408B603B685B6803F40013C1
:1026DC00002B06D0234BDA682249BB691343CB602D
:1026EC0006E0204BDA68BB69DB431E491340CB6024
:1026FC003B685B6803F40033002B06D0194B5A6817
:10270C001849BB6913434B6006E0164B5A68BB690A
:10271C00DB43144913404B603B685B6803F4803324
:10272C00002B21D00F4B1A680E49BB6913430B6069
:10273C0021E000BF00003210000031100000221018
:10274C0000002110000012100000111000100240B7
:10275C000000014000080140000C01400010014045
:10276C0000140140000401400B4B1A68BB69DB43A9
:10277C00094913400B607B6A01337B623B681A6822
:10278C007B6A22FA03F3002B7FF48EAE00BF00BFEE
:10279C002C37BD4680BC70470004014080B483B028
:1027AC0000AF78600B467B8013467B707B78002BE8
:1027BC0003D07A887B681A6103E07B881A047B68F3
:1027CC001A6100BF0C37BD4680BC704780B485B021
:1027DC0000AF78600B467B807B68DB68FB607A8897
:1027EC00FB6813401A04FB68D9437B880B401A43DF
:1027FC007B681A6100BF1437BD4680BC704700006F
:10280C0080B584B000AF78607B68002B01D10123C8
:10281C002BE17B6893F83D30DBB2002B06D17B6853
:10282C00002283F83C207868FEF7A2FE7B68242205
:10283C0083F83D207B681B681A687B681B6822F054
:10284C0001021A607B681B681A687B681B6842F47B
:10285C0000421A607B681B681A687B681B6822F44C
:10286C0000421A6001F0F8FCF8607B685B68814AF2
:10287C00934207D8FB68804A934294BF01230023FC
:10288C00DBB206E0FB687D4A934294BF0123002330
:10289C00DBB2002B01D00123E7E0FB68784AA2FBF6
:1028AC0003239B0CBB607B681B685B6823F03F01B8
:1028BC007B681B68BA680A435A607B681B681B6A92
:1028CC0023F03F017B685B686A4A934202D8BB687D
:1028DC00013309E0BB684FF4967202FB03F3694ABB
:1028EC00A2FB03239B0901337A6812680B43136222
:1028FC007B681B68DB6923F44F4222F0FF027B6884
:10290C005B685C498B4219D8FB68591E7B685B6815
:10291C005B00B1FBF3F3591C40F6FC730B40002B2E
:10292C000AD0FB68591E7B685B685B00B1FBF3F354
:10293C000133C3F30B0351E004234FE07B689B6826
:10294C00002B11D1FB68581E7B6859680B465B0045
:10295C000B44B0FBF3F30133C3F30B03002B0CBF9D
:10296C0001230023DBB212E0FB68581E7B68596818
:10297C000B469B000B4499000B44B0FBF3F3013363
:10298C00C3F30B03002B0CBF01230023DBB2002B82
:10299C0001D0012322E07B689B68002B0ED1FB68E1
:1029AC00581E7B6859680B465B000B44B0FBF3F375
:1029BC000133C3F30B0343F400430FE0FB68581ED1
:1029CC007B6859680B469B000B4499000B44B0FB89
:1029DC00F3F30133C3F30B0343F440437968096801
:1029EC001343CB617B681B681B6823F0C0017B68B9
:1029FC00DA697B681B6A1A437B681B680A431A6096
:102A0C007B681B689B6823F4034323F0FF037A68FD
:102A1C0011697A68D26811437A6812680B43936023
:102A2C007B681B68DB6823F0FF017B685A697B6855
:102A3C009B691A437B681B680A43DA607B681B68D6
:102A4C001A687B681B6842F001021A607B680022DE
:102A5C001A647B68202283F83D207B6800221A636D
:102A6C007B68002283F83E20002318461037BD46B1
:102A7C0080BD00BFA08601007F841E00FF083D00C2
:102A8C0083DE1B43D34D621080B588B002AFF86073
:102A9C007A601A460B467B8113463B81FEF7B4FEE7
:102AAC007861FB6893F83D30DBB2202B40F0E0807E
:102ABC007B690093192301227049F86800F0CCFD62
:102ACC000346002B01D00223D3E0FB6893F83C3083
:102ADC00012B01D10223CCE0FB68012283F83C20BE
:102AEC00FB681B681B6803F00103012B07D0FB6814
:102AFC001B681A68FB681B6842F001021A60FB68CD
:102B0C001B681A68FB681B6822F400621A60FB6879
:102B1C00212283F83D20FB68102283F83E20FB68BD
:102B2C0000221A64FB687A685A62FB683A895A85F3
:102B3C00FB685B8D9AB2FB681A85FB68504ADA62B7
:102B4C0079897B693A6AF86800F036FC0346002BF9
:102B5C0001D001238DE000233B61FB681B685B699E
:102B6C003B61FB681B689B693B613B6966E07A696A
:102B7C00396AF86800F08AFE0346002B0DD0FB681A
:102B8C001B6C042B07D1FB681B681A68FB681B685D
:102B9C0042F400721A6001236BE0FB685B6A1A78DE
:102BAC00FB681B681A61FB685B6A5A1CFB685A62FB
:102BBC00FB685B8D9BB2013B9AB2FB685A85FB6844
:102BCC001B8D013B9AB2FB681A85FB681B685B691D
:102BDC0003F00403042B1BD1FB681B8D002B17D0B7
:102BEC00FB685B6A1A78FB681B681A61FB685B6A96
:102BFC005A1CFB685A62FB685B8D9BB2013B9AB214
:102C0C00FB685A85FB681B8D013B9AB2FB681A85E1
:102C1C007A69396AF86800F081FE0346002B0DD002
:102C2C00FB681B6C042B07D1FB681B681A68FB68DC
:102C3C001B6842F400721A6001231AE0FB681B8DBA
:102C4C00002B94D1FB681B681A68FB681B6842F464
:102C5C0000721A60FB68202283F83D20FB6800227A
:102C6C0083F83E20FB68002283F83C20002300E020
:102C7C00022318461837BD4680BD00BF0200100065
:102C8C000000FFFF80B58CB002AFF8607A601A4686
:102C9C000B467B8113463B8100233B62FEF7B4FD60
:102CAC007862FB6893F83D30DBB2202B40F04B820E
:102CBC007B6A0093192301227F49F86800F0CCFC51
:102CCC000346002B01D002233EE2FB6893F83C3014
:102CDC00012B01D1022337E2FB68012283F83C204F
:102CEC00FB681B681B6803F00103012B07D0FB6812
:102CFC001B681A68FB681B6842F001021A60FB68CB
:102D0C001B681A68FB681B6822F400621A60FB6877
:102D1C00222283F83D20FB68102283F83E20FB68BA
:102D2C0000221A64FB687A685A62FB683A895A85F1
:102D3C00FB685B8D9AB2FB681A85FB685F4ADA62A6
:102D4C0079897B6A3A6BF86800F0B8FB0346002B74
:102D5C0001D00123F8E1FB681B8D002B13D100235C
:102D6C00FB61FB681B685B69FB61FB681B689B690B
:102D7C00FB61FB69FB681B681A68FB681B6842F403
:102D8C0000721A60CCE1FB681B8D012B1ED1FB6815
:102D9C001B681A68FB681B6822F480621A6072B6A2
:102DAC0000BF0023BB61FB681B685B69BB61FB68F0
:102DBC001B689B69BB61BB69FB681B681A68FB6875
:102DCC001B6842F400721A6062B635E0FB681B8D1A
:102DDC00022B1ED1FB681B681A68FB681B6842F447
:102DEC0000621A6072B600BF00237B61FB681B682F
:102DFC005B697B61FB681B689B697B617B69FB681A
:102E0C001B681A68FB681B6822F480621A6062B641
:102E1C0012E0FB681B681A68FB681B6842F480624E
:102E2C001A6000233B61FB681B685B693B61FB68B4
:102E3C001B689B693B613B6972E1FB681B8D032B33
:102E4C0000F21F81FB681B8D012B23D17A6A396B31
:102E5C00F86800F0ABFD0346002B01D0012373E1B1
:102E6C00FB681B681A69FB685B6AD2B21A70FB6854
:102E7C005B6A5A1CFB685A62FB681B8D013B9AB259
:102E8C00FB681A85FB685B8D9BB2013B9AB2FB68B1
:102E9C005A8545E1FB681B8D022B52D17B6A00934E
:102EAC003B6B00220649F86800F0D6FB0346002B6A
:102EBC0008D0012348E100BF020010000000FFFF12
:102ECC000400010072B600BFFB681B681A68FB683F
:102EDC001B6842F400721A60FB681B681A69FB6875
:102EEC005B6AD2B21A70FB685B6A5A1CFB685A6246
:102EFC00FB681B8D013B9AB2FB681A85FB685B8DE6
:102F0C009BB2013B9AB2FB685A8562B600BFFB6864
:102F1C001B681A69FB685B6AD2B21A70FB685B6A41
:102F2C005A1CFB685A62FB681B8D013B9AB2FB680A
:102F3C001A85FB685B8D9BB2013B9AB2FB685A8584
:102F4C00EEE07B6A00933B6B00228149F86800F04D
:102F5C0083FB0346002B01D00123F5E0FB681B68C3
:102F6C001A68FB681B6822F480621A6072B600BF94
:102F7C00FB681B681A69FB685B6AD2B21A70FB6843
:102F8C005B6A5A1CFB685A62FB681B8D013B9AB248
:102F9C00FB681A85FB685B8D9BB2013B9AB2FB68A0
:102FAC005A856C4B1B68DB086B4AA2FB03231A0A7D
:102FBC0013469B001344DA00D31A3B623B6A013B75
:102FCC003B623B6A002B18D1FB6800221A63FB683A
:102FDC00202283F83D20FB68002283F83E20FB680A
:102FEC001B6C43F02002FB681A6462B600BFFB68DE
:102FFC00002283F83C200123A6E0FB681B685B6978
:10300C0003F00403042BD9D1FB681B681A68FB6816
:10301C001B6842F400721A60FB681B681A69FB6833
:10302C005B6AD2B21A70FB685B6A5A1CFB685A6204
:10303C00FB681B8D013B9AB2FB681A85FB685B8DA4
:10304C009BB2013B9AB2FB685A8562B600BFFB6823
:10305C001B681A69FB685B6AD2B21A70FB685B6A00
:10306C005A1CFB685A62FB681B8D013B9AB2FB68C9
:10307C001A85FB685B8D9BB2013B9AB2FB685A8543
:10308C004EE07A6A396BF86800F090FC0346002B2E
:10309C0001D0012358E0FB681B681A69FB685B6A66
:1030AC00D2B21A70FB685B6A5A1CFB685A62FB68E6
:1030BC001B8D013B9AB2FB681A85FB685B8D9BB23A
:1030CC00013B9AB2FB685A85FB681B685B6903F08D
:1030DC000403042B24D1FB681B8D032B07D1FB6845
:1030EC001B681A68FB681B6822F480621A60FB6814
:1030FC001B681A69FB685B6AD2B21A70FB685B6A60
:10310C005A1CFB685A62FB681B8D013B9AB2FB6828
:10311C001A85FB685B8D9BB2013B9AB2FB685A85A2
:10312C00FB681B8D002B7FF488AEFB68202283F894
:10313C003D20FB68002283F83E20FB68002283F8C8
:10314C003C20002300E0022318462837BD4680BDF2
:10315C00040001000800002089B5F81480B58AB07D
:10316C0002AFF8607A603B600B467B81FEF74CFB4C
:10317C00F8610023BB61FB6893F83D30DBB2202B78
:10318C0040F01181FB690093192301228849F868EA
:10319C0000F062FA0346002B01D0022304E1FB6825
:1031AC0093F83C30012B01D10223FDE0FB68012296
:1031BC0083F83C20FB681B681B6803F00103012BA0
:1031CC0007D0FB681B681A68FB681B6842F0010299
:1031DC001A60FB681B681A68FB681B6822F40062A3
:1031EC001A60FB68242283F83D20FB6800221A64D5
:1031FC00FB68704ADA62FB681B681A68FB681B681C
:10320C0042F480721A60FB6900933B6800224FF015
:10321C000111F86800F020FA0346002B0DD0FB6872
:10322C001B681B6803F48073B3F5807F03D1FB68C4
:10323C004FF400721A640323B6E07B89DBB21A46A2
:10324C00FB681B6802F0FE021A61FEF7DDFAF861FA
:10325C00FB681B685B6903F00203022B0CBF0123A4
:10326C000023DBB2FB75FB681B685B6903F48063AE
:10327C00B3F5806F0CBF01230023DBB2BB7525E0D7
:10328C00FEF7C2FA0246FB69D31A3A689A4202D395
:10329C003B68002B03D1FB68A02283F83D20FB6820
:1032AC001B685B6903F00203022B0CBF0123002394
:1032BC00DBB2FB75FB681B685B6903F48063B3F5D9
:1032CC00806F0CBF01230023DBB2BB75FB6893F846
:1032DC003D30DBB2A02B05D0FB7D002B02D1BB7D9A
:1032EC00002BCDD0FB68202283F83D20FB681B68A7
:1032FC005B6903F00203022B29D1FB681B681A6877
:10330C00FB681B6842F400721A6000233B61FB6887
:10331C001B685B693B61FB681B689B693B613B6994
:10332C00FB690093192301222149F86800F094F9F4
:10333C000346002B01D0012336E0FB68202283F8E2
:10334C003D20FB68002283F83C2000232CE0FB6826
:10335C001B681A68FB681B6842F400721A60FB68F1
:10336C001B686FF480625A61FB6900931923012278
:10337C000F49F86800F070F90346002B01D00123C7
:10338C0012E0BB690133BB61BA697B689A42FFF4F6
:10339C0032AFFB68202283F83D20FB68002283F8C3
:1033AC003C20012300E0022318462037BD4680BD97
:1033BC00020010000000FFFF80B588B002AFF8607B
:1033CC007A603B600B467B81FB68DB6A7B617B69C7
:1033DC00082B06D07B69012B03D07B6913F5803F4A
:1033EC0008D1FB681B681A68FB681B6842F4807282
:1033FC001A600BE0FB681B6B122B07D1FB681B6878
:10340C001A68FB681B6842F480721A603B68009370
:10341C007B6800224FF00111F86800F01DF903469B
:10342C00002B0DD0FB681B681B6803F48073B3F58D
:10343C00807F03D1FB684FF400721A64032335E0DC
:10344C00FB681B69B3F5804F08D17B89DBB21A4648
:10345C00FB681B6802F0FE021A611BE07B89DB1122
:10346C00DBB203F00603DBB263F00F03DAB2FB68E6
:10347C001B681A613B687A680E49F86800F066F9B7
:10348C000346002B01D0012310E07B89DAB2FB68E4
:10349C001B681A613B687A680749F86800F056F9AE
:1034AC000346002B01D0012300E0002318461837F7
:1034BC00BD4680BD080001000200010080B588B047
:1034CC0002AFF8607A603B600B467B81FB68DB6A7D
:1034DC007B61FB681B681A68FB681B6842F480629E
:1034EC001A607B69082B06D07B69012B03D07B69A2
:1034FC0013F5803F08D1FB681B681A68FB681B68D2
:10350C0042F480721A600BE0FB681B6B112B07D125
:10351C00FB681B681A68FB681B6842F480721A60AF
:10352C003B6800937B6800224FF00111F86800F0B3
:10353C0093F80346002B0DD0FB681B681B6803F443
:10354C008073B3F5807F03D1FB684FF400721A646B
:10355C00032379E0FB681B69B3F5804F08D17B89A5
:10356C00DBB243F00103DAB2FB681B681A615FE05F
:10357C007B89DB11DBB203F00603DBB263F00F03D4
:10358C00DAB2FB681B681A613B687A683049F868E4
:10359C0000F0DCF80346002B01D0012354E07B89BA
:1035AC00DAB2FB681B681A613B687A682949F868CB
:1035BC0000F0CCF80346002B01D0012344E000239B
:1035CC003B61FB681B685B693B61FB681B689B6923
:1035DC003B613B69FB681B681A68FB681B6842F41B
:1035EC0080721A603B6800937B6800224FF00111D7
:1035FC00F86800F031F80346002B0DD0FB681B680F
:10360C001B6803F48073B3F5807F03D1FB684FF420
:10361C0000721A64032317E07B89DB11DBB203F021
:10362C000603DBB263F00E03DAB2FB681B681A61A7
:10363C003B687A680749F86800F088F80346002B65
:10364C0001D0012300E0002318461837BD4680BD89
:10365C00080001000200010080B584B000AFF860E2
:10366C00B9603B601346FB7148E03B68B3F1FF3F28
:10367C0044D0FEF7C9F80246BB69D31A3A689A429D
:10368C0002D33B68002B39D1BB681B0CDBB2012B7E
:10369C000DD1FB681B685B69DA43BB6813409BB2B6
:1036AC00002B0CBF01230023DBB21A460CE0FB6895
:1036BC001B689B69DA43BB6813409BB2002B0CBFA1
:1036CC0001230023DBB21A46FB799A4216D1FB6820
:1036DC0000221A63FB68202283F83D20FB6800223D
:1036EC0083F83E20FB681B6C43F02002FB681A64D5
:1036FC00FB68002283F83C20012323E0BB681B0CF1
:10370C00DBB2012B0DD1FB681B685B69DA43BB682C
:10371C0013409BB2002B0CBF01230023DBB21A46D3
:10372C000CE0FB681B689B69DA43BB6813409BB2D7
:10373C00002B0CBF01230023DBB21A46FB799A4203
:10374C0093D0002318461037BD4680BD80B584B099
:10375C0000AFF860B9607A603B6071E0FB681B6891
:10376C005B6903F48063B3F5806F23D1FB681B683E
:10377C001A68FB681B6842F400721A60FB681B68CD
:10378C006FF480625A61FB6800221A63FB68202286
:10379C0083F83D20FB68002283F83E20FB681B6CFD
:1037AC0043F00402FB681A64FB68002283F83C2097
:1037BC00012367E07B68B3F1FF3F41D0FEF724F8AB
:1037CC0002463B68D31A7A689A4202D37B68002B74
:1037DC0036D1BB681B0CDBB2012B0CD1FB681B6810
:1037EC005B69DA43BB6813409BB2002B14BF012307
:1037FC000023DBB20BE0FB681B689B69DA43BB68F8
:10380C0013409BB2002B14BF01230023DBB2002B0F
:10381C0016D0FB6800221A63FB68202283F83D2037
:10382C00FB68002283F83E20FB681B6C43F02002EF
:10383C00FB681A64FB68002283F83C20012321E01A
:10384C00BB681B0CDBB2012B0CD1FB681B685B69E2
:10385C00DA43BB6813409BB2002B14BF0123002337
:10386C00DBB20BE0FB681B689B69DA43BB68134057
:10387C009BB2002B14BF01230023DBB2002B7FF47F
:10388C006DAF002318461037BD4680BD80B584B09F
:10389C0000AFF860B9607A6034E0F86800F0E3F8E3
:1038AC000346002B01D0012334E0BB68B3F1FF3F8A
:1038BC0028D0FDF7A9FF02467B68D31ABA689A4252
:1038CC0002D3BB68002B1DD1FB681B685B6903F03E
:1038DC008003802B16D0FB6800221A63FB68202221
:1038EC0083F83D20FB68002283F83E20FB681B6CAC
:1038FC0043F02002FB681A64FB68002283F83C202A
:10390C00012307E0FB681B685B6903F08003802BD5
:10391C00C3D1002318461037BD4680BD80B584B096
:10392C0000AFF860B9607A6034E0F86800F09BF89A
:10393C000346002B01D0012334E0BB68B3F1FF3FF9
:10394C0028D0FDF761FF02467B68D31ABA689A4209
:10395C0002D3BB68002B1DD1FB681B685B6903F0AD
:10396C000403042B16D0FB6800221A63FB68202288
:10397C0083F83D20FB68002283F83E20FB681B6C1B
:10398C0043F02002FB681A64FB68002283F83C2099
:10399C00012307E0FB681B685B6903F00403042B3D
:1039AC00C3D1002318461037BD4680BD80B584B006
:1039BC0000AFF860B9607A6049E0FB681B685B692E
:1039CC0003F01003102B19D1FB681B686FF0100269
:1039DC005A61FB6800221A63FB68202283F83D20A1
:1039EC00FB68002283F83E20FB681A6CFB681A64A3
:1039FC00FB68002283F83C20012330E0FDF704FF34
:103A0C0002467B68D31ABA689A4202D3BB68002B71
:103A1C001DD1FB681B685B6903F04003402B16D07B
:103A2C00FB6800221A63FB68202283F83D20FB68A8
:103A3C00002283F83E20FB681B6C43F02002FB68DD
:103A4C001A64FB68002283F83C20012307E0FB6822
:103A5C001B685B6903F04003402BAED10023184672
:103A6C001037BD4680BD80B483B000AF78607B68F2
:103A7C001B685B6903F48063B3F5806F1BD17B68B3
:103A8C001B686FF480625A617B6800221A637B6842
:103A9C00202283F83D207B68002283F83E207B683F
:103AAC001B6C43F004027B681A647B68002283F869
:103ABC003C20012300E0002318460C37BD4680BC97
:103ACC007047000080B586B000AF78607B68002B33
:103ADC0001D1012372E27B681B6803F00103002B08
:103AEC0000F08780924B5B6803F00C03042B0CD026
:103AFC008F4B5B6803F00C03082B12D18C4B5B686B
:103B0C0003F48033B3F5803F0BD1894B1B6803F46E
:103B1C000033002B6CD07B685B68002B68D10123D1
:103B2C004CE27B685B68B3F5803F06D1804B1B6829
:103B3C007F4A43F4803313602EE07B685B68002B74
:103B4C000CD17B4B1B687A4A23F480331360784B7F
:103B5C001B68774A23F4802313601DE07B685B6845
:103B6C00B3F5A02F0CD1724B1B68714A43F4802320
:103B7C0013606F4B1B686E4A43F4803313600BE089
:103B8C006B4B1B686A4A23F480331360684B1B68C9
:103B9C00674A23F4802313607B685B68002B13D087
:103BAC00FDF732FE386108E0FDF72EFE02463B6958
:103BBC00D31A642B01D9032300E25D4B1B6803F479
:103BCC000033002BF0D014E0FDF71EFE386108E046
:103BDC00FDF71AFE02463B69D31A642B01D9032365
:103BEC00ECE1534B1B6803F40033002BF0D100E0E5
:103BFC0000BF7B681B6803F00203002B63D04C4BA7
:103C0C005B6803F00C03002B0BD0494B5B6803F093
:103C1C000C03082B1CD1464B5B6803F48033002B40
:103C2C0016D1434B1B6803F00203002B05D07B68B5
:103C3C001B69012B01D00123C0E13D4B1B6823F014
:103C4C00F8027B685B69DB00394913430B603AE08F
:103C5C007B681B69002B20D0364B01221A60FDF7C4
:103C6C00D3FD386108E0FDF7CFFD02463B69D31A5E
:103C7C00022B01D90323A1E12D4B1B6803F0020396
:103C8C00002BF0D02A4B1B6823F0F8027B685B6991
:103C9C00DB00274913430B6015E0264B00221A600A
:103CAC00FDF7B2FD386108E0FDF7AEFD02463B6959
:103CBC00D31A022B01D9032380E11D4B1B6803F09F
:103CCC000203002BF0D17B681B6803F00803002B68
:103CDC003AD07B689B69002B19D0174B01221A60D4
:103CEC00FDF792FD386108E0FDF78EFD02463B6959
:103CFC00D31A022B01D9032360E10D4B5B6A03F04D
:103D0C000203002BF0D0012000F0CEFA1CE00A4B8D
:103D1C0000221A60FDF778FD38610FE0FDF774FDA5
:103D2C0002463B69D31A022B08D9032346E100BF94
:103D3C00001002400000424280044242924B5B6AF7
:103D4C0003F00203002BE9D17B681B6803F004032A
:103D5C00002B00F0A6800023FB758B4BDB6903F076
:103D6C008053002B0DD1884BDB69874A43F080537D
:103D7C00D361854BDB6903F08053BB60BB680123C7
:103D8C00FB75824B1B6803F48073002B18D17F4B9F
:103D9C001B687E4A43F480731360FDF735FD386170
:103DAC0008E0FDF731FD02463B69D31A642B01D9BB
:103DBC00032303E1754B1B6803F48073002BF0D0D5
:103DCC007B68DB68012B06D16F4B1B6A6E4A43F094
:103DDC00010313622DE07B68DB68002B0CD16A4B6E
:103DEC001B6A694A23F001031362674B1B6A664A1C
:103DFC0023F0040313621CE07B68DB68052B0CD1F9
:103E0C00614B1B6A604A43F0040313625E4B1B6AEE
:103E1C005D4A43F0010313620BE05B4B1B6A5A4A89
:103E2C0023F001031362584B1B6A574A23F0040317
:103E3C0013627B68DB68002B15D0FDF7E5FC38615D
:103E4C000AE0FDF7E1FC02463B69D31A41F28832E5
:103E5C00934201D90323B1E04B4B1B6A03F00203DD
:103E6C00002BEED014E0FDF7CFFC38610AE0FDF733
:103E7C00CBFC02463B69D31A41F28832934201D9FA
:103E8C0003239BE0404B1B6A03F00203002BEED193
:103E9C00FB7D012B05D13C4BDB693B4A23F0805366
:103EAC00D3617B68DB69002B00F08780364B5B6845
:103EBC0003F00C03082B61D07B68DB69022B46D125
:103ECC00334B00221A60FDF79FFC386108E0FDF7C8
:103EDC009BFC02463B69D31A022B01D903236DE0EC
:103EEC00294B1B6803F00073002BF0D17B681B6A15
:103EFC00B3F5803F08D1244B5B6823F400327B6818
:103F0C009B68214913434B601F4B5B6823F474126D
:103F1C007B68196A7B685B6A0B431B4913434B60D4
:103F2C001B4B01221A60FDF76FFC386108E0FDF7AE
:103F3C006BFC02463B69D31A022B01D903233DE0EB
:103F4C00114B1B6803F00073002BF0D035E0104BC5
:103F5C0000221A60FDF758FC386108E0FDF754FCAC
:103F6C0002463B69D31A022B01D9032326E0064BE8
:103F7C001B6803F00073002BF0D11EE07B68DB693B
:103F8C00012B07D1012319E0001002400070004002
:103F9C00600042420B4B5B68FB60FB6803F48032B1
:103FAC007B681B6A9A4206D1FB6803F470127B682B
:103FBC005B6A9A4201D0012300E0002318461837AF
:103FCC00BD4680BD0010024080B584B000AF786063
:103FDC0039607B68002B01D10123D0E06A4B1B6850
:103FEC0003F007033A689A4210D9674B1B6823F019
:103FFC00070265493B6813430B60634B1B6803F076
:10400C0007033A689A4201D00123B8E07B681B6829
:10401C0003F00203002B20D07B681B6803F0040321
:10402C00002B05D0594B5B68584A43F4E06353604E
:10403C007B681B6803F00803002B05D0534B5B68AF
:10404C00524A43F460535360504B5B6823F0F002C8
:10405C007B689B684D4913434B607B681B6803F07E
:10406C000103002B40D07B685B68012B07D1474BC9
:10407C001B6803F40033002B15D101237FE07B6810
:10408C005B68022B07D1414B1B6803F00073002BBC
:10409C0009D1012373E03D4B1B6803F00203002B95
:1040AC0001D101236BE0394B5B6823F003027B6881
:1040BC005B68364913434B60FDF7A6FBF8600AE0DA
:1040CC00FDF7A2FB0246FB68D31A41F288329342F9
:1040DC0001D9032353E02D4B5B6803F00C027B6882
:1040EC005B689B009A42EBD1274B1B6803F00703DC
:1040FC003A689A4210D2244B1B6823F007022249DB
:10410C003B6813430B60204B1B6803F007033A68B2
:10411C009A4201D0012332E07B681B6803F0040350
:10412C00002B08D0194B5B6823F4E0627B68DB68DA
:10413C00164913434B607B681B6803F00803002B84
:10414C0009D0124B5B6823F460527B681B69DB005F
:10415C000E4913434B6000F021F802460B4B5B6891
:10416C001B0903F00F030A49CB5C22FA03F3094A3B
:10417C001360094B1B681846FDF704FB0023184617
:10418C001037BD4680BD00BF002002400010024029
:10419C0064520008080000200C00002080B487B096
:1041AC0000AF0023FB600023BB6000237B61002376
:1041BC007B6000233B611E4B5B68FB60FB6803F07C
:1041CC000C03042B02D0082B03D027E0194B3B61C6
:1041DC0027E0FB689B0C03F00F03174AD35C7B6052
:1041EC00FB6803F48033002B10D0114B5B685B0C25
:1041FC0003F00103114AD35CBB607B680D4A03FBDF
:10420C0002F2BB68B2FBF3F37B6104E07B680C4AFF
:10421C0002FB03F37B617B693B6102E0054B3B6175
:10422C0000BF3B6918461C37BD4680BC704700BFB9
:10423C000010024000127A007C5200088C520008D8
:10424C0000093D0080B400AF024B1B681846BD4608
:10425C0080BC70470800002080B500AFFFF7F2FF6C
:10426C000246054B5B681B0A03F007030349CB5C52
:10427C0022FA03F3184680BD001002407452000865
:10428C0080B500AFFFF7DEFF0246054B5B68DB0A2B
:10429C0003F007030349CB5C22FA03F3184680BDF5
:1042AC00001002407452000880B485B000AF7860F2
:1042BC000A4B1B680A4AA2FB03235B0A7A6802FBBF
:1042CC0003F3FB6000BFFB685A1EFA60002BF9D1A8
:1042DC0000BF00BF1437BD4680BC704708000020EB
:1042EC00D34D621080B586B000AF786000233B617F
:1042FC000023FB607B681B6803F00103002B7DD05F
:10430C000023FB754F4BDB6903F08053002B0DD161
:10431C004C4BDB694B4A43F08053D361494BDB690F
:10432C0003F08053BB60BB680123FB75464B1B68D5
:10433C0003F48073002B18D1434B1B68424A43F49F
:10434C0080731360FDF760FA386108E0FDF75CFAE2
:10435C0002463B69D31A642B01D903236DE03A4B17
:10436C001B6803F48073002BF0D0364B1B6A03F4EC
:10437C004073FB60FB68002B2ED07B685B6803F4FA
:10438C004073FA689A4227D02E4B1B6A23F4407371
:10439C00FB602E4B01221A602C4B00221A60294A1A
:1043AC00FB681362FB6803F00103002B14D0FDF7CC
:1043BC002BFA38610AE0FDF727FA02463B69D31A5B
:1043CC0041F28832934201D9032336E01D4B1B6A1C
:1043DC0003F00203002BEED01A4B1B6A23F440723D
:1043EC007B685B68174913430B62FB7D012B05D17E
:1043FC00144BDB69134A23F08053D3617B681B6831
:10440C0003F00203002B08D00E4B5B6823F44042F0
:10441C007B689B680B4913434B607B681B6803F0FC
:10442C001003002B08D0074B5B6823F480027B68D9
:10443C00DB68044913434B60002318461837BD460C
:10444C0080BD00BF0010024000700040400442429A
:10445C0080B588B000AF786000237B610023FB61DE
:10446C0000233B610023FB600023BB617B68102BA6
:10447C000AD07B68102B00F28A807B68012B45D018
:10448C007B68022B75D082E0464B5B68FB60454B2A
:10449C001B6803F08073002B7BD0FB689B0C03F034
:1044AC000F03414AD35C3B61FB6803F48033002B60
:1044BC0015D03C4B5B685B0C03F001033B4AD35CAF
:1044CC007B61FB6803F48033002B0DD0384A7B6989
:1044DC00B2FBF3F23B6902FB03F3FB6104E03B69C3
:1044EC00344A02FB03F3FB612E4B5B6803F480033D
:1044FC00B3F5800F02D1FB69BB614AE0FB695B003D
:10450C002D4AA2FB03235B08BB6142E0254B1B6ACF
:10451C00FB60FB6803F44073B3F5807F08D1FB6844
:10452C0003F00203002B03D04FF40043BB611FE0E8
:10453C00FB6803F44073B3F5007F09D1194B5B6A38
:10454C0003F00203002B03D049F64043BB610FE09C
:10455C00FB6803F44073B3F5407F1CD1114B1B680F
:10456C0003F40033002B16D04FF22443BB6112E04E
:10457C0011E0FFF785FE02460A4B5B689B0B03F0CC
:10458C00030301335B00B2FBF3F3BB6104E000BF38
:10459C0002E000BF00E000BFBB6918462037BD46F3
:1045AC0080BD00BF0010024090520008A0520008CD
:1045BC0000127A0000093D00ABAAAAAA80B582B00D
:1045CC0000AF78607B68002B01D1012342E07B684F
:1045DC0093F84130DBB2002B06D17B68002283F8C4
:1045EC0040207868FDF702F87B68242283F841208C
:1045FC007B681B68DA687B681B6822F40052DA60FF
:10460C00786800F063FD7B681B681A697B681B681F
:10461C0022F490421A617B681B685A697B681B689C
:10462C0022F02A025A617B681B68DA687B681B6877
:10463C0042F40052DA607B6800225A647B682022C4
:10464C0083F841207B68202283F842207B6800227B
:10465C005A63002318460837BD4680BD80B58AB022
:10466C0002AFF860B9603B601346FB8000237B61AE
:10467C00FB6893F84130DBB2202B75D1BB68002B63
:10468C0002D0FB88002B01D101236EE0FB680022D5
:10469C005A64FB68212283F84120FDF7B5F8786154
:1046AC00FB68FA889A84FB68FA88DA84FB689B6852
:1046BC00B3F5805F08D1FB681B69002B04D1002384
:1046CC00FB61BB68BB6103E0BB68FB610023BB61A2
:1046DC002EE03B6800937B6900228021F86800F093
:1046EC0001FB0346002B05D0FB68202283F84120F8
:1046FC0003233AE0FB69002B0BD1BB691B881A46DC
:10470C00FB681B68C2F308025A60BB690233BB61C9
:10471C0007E0FB691A78FB681B685A60FB69013378
:10472C00FB61FB68DB8C9BB2013B9AB2FB68DA84C1
:10473C00FB68DB8C9BB2002BCBD13B6800937B6975
:10474C0000224021F86800F0CDFA0346002B05D07A
:10475C00FB68202283F84120032306E0FB6820221B
:10476C0083F84120002300E0022318462037BD4681
:10477C0080BD000080B5BAB000AF78607B681B6864
:10478C001B68C7F8E4307B681B68DB68C7F8E0304F
:10479C007B681B685B69C7F8DC300023C7F8D8302E
:1047AC000023C7F8D430D7F8E43003F00F03C7F870
:1047BC00D830D7F8D830002B0FD1D7F8E43003F02D
:1047CC002003002B09D0D7F8E03003F02003002B96
:1047DC0003D0786800F0BCFB5BE2D7F8D830002B34
:1047EC0000F0DE80D7F8DC3003F00103002B06D19B
:1047FC00D7F8E03003F49073002B00F0D180D7F899
:10480C00E43003F00103002B0BD0D7F8E03003F4B5
:10481C008073002B05D07B685B6C43F001027B68D6
:10482C005A64D7F8E43003F00403002B0BD0D7F80C
:10483C00DC3003F00103002B05D07B685B6C43F08C
:10484C0002027B685A64D7F8E43003F00203002BB1
:10485C000BD0D7F8DC3003F00103002B05D07B68BC
:10486C005B6C43F004027B685A64D7F8E43003F0C5
:10487C000803002B11D0D7F8E03003F02003002BF5
:10488C0005D1D7F8DC3003F00103002B05D07B6891
:10489C005B6C43F008027B685A647B685B6C002B92
:1048AC0000F0F281D7F8E43003F02003002B08D09D
:1048BC00D7F8E03003F02003002B02D0786800F02A
:1048CC0047FB7B681B685B6903F04003002B14BF3C
:1048DC0001230023DBB2C7F8D4307B685B6C03F098
:1048EC000803002B03D1D7F8D430002B4FD07868B5
:1048FC0000F051FA7B681B685B6903F04003002BE6
:10490C0041D07B681B681433C7F89C30D7F89C30B7
:10491C0053E8003FC7F89830D7F8983023F040039D
:10492C00C7F8D0307B681B681433D7F8D020C7F891
:10493C00A820C7F8A430D7F8A410D7F8A82041E8CD
:10494C000023C7F8A030D7F8A030002BD9D17B6852
:10495C00DB6B002B13D07B68DB6B7E4A5A637B6866
:10496C00DB6B1846FDF71EFD0346002B16D07B684B
:10497C00DB6B5B6B7A68D26B104698470EE07868FD
:10498C0000F09CF90AE0786800F098F906E0786885
:10499C0000F094F97B6800225A6475E100BF73E162
:1049AC007B681B6B012B40F04F81D7F8E43003F090
:1049BC001003002B00F04881D7F8E03003F010030F
:1049CC00002B00F041810023BB607B681B681B68D7
:1049DC00BB607B681B685B68BB60BB687B681B68E3
:1049EC005B6903F04003002B00F0B6807B68DB6B47
:1049FC001B685B68A7F8BE30B7F8BE30002B00F020
:104A0C0045817B689B8DB7F8BE209A4280F03E8131
:104A1C007B68B7F8BE20DA857B68DB6B9B69202B43
:104A2C0000F088807B681B680C33C7F88830D7F897
:104A3C00883053E8003FC7F88430D7F8843023F42B
:104A4C008073C7F8B8307B681B680C33D7F8B82074
:104A5C00C7F89420C7F89030D7F89010D7F8942066
:104A6C0041E80023C7F88C30D7F88C30002BD9D113
:104A7C007B681B6814337B677B6F53E8003F3B6795
:104A8C003B6F23F00103C7F8B4307B681B68143309
:104A9C00D7F8B420C7F88020FB67F96FD7F88020CF
:104AAC0041E80023BB67BB6F002BE1D17B681B681F
:104ABC0014333B663B6E53E8003FFB65FB6D23F004
:104ACC004003C7F8B0307B681B681433D7F8B020AC
:104ADC00FA66BB66B96EFA6E41E800237B667B6EA4
:104AEC00002BE3D17B68202283F842207B680022D4
:104AFC001A637B681B680C33FB64FB6C53E8003F48
:104B0C00BB64BB6C23F01003C7F8AC307B681B682C
:104B1C000C33D7F8AC20BA657B65796DBA6D41E87A
:104B2C0000233B653B6D002BE3D17B68DB6B1846A8
:104B3C00FDF7FDFB7B6802225A637B689A8D7B68CC
:104B4C00DB8D9BB2D31A9BB21946786800F0BFF884
:104B5C009CE000BF674E00087B689A8D7B68DB8DFC
:104B6C009BB2D31AA7F8CE307B68DB8D9BB2002B9F
:104B7C0000F08E80B7F8CE30002B00F089807B6877
:104B8C001B680C33BB63BB6B53E8003F7B637B6BD5
:104B9C0023F49073C7F8C8307B681B680C33D7F8C4
:104BAC00C8207A643B64396C7A6C41E80023FB635F
:104BBC00FB6B002BE3D17B681B6814337B627B6A35
:104BCC0053E8003F3B623B6A23F00103C7F8C43053
:104BDC007B681B681433D7F8C4203A63FB62F96A0C
:104BEC003A6B41E80023BB62BB6A002BE3D17B68C4
:104BFC00202283F842207B6800221A637B681B68A2
:104C0C000C333B613B6953E8003FFB60FB6823F0CE
:104C1C001003C7F8C0307B681B680C33D7F8C02072
:104C2C00FA61BB61B969FA6941E800237B617B6970
:104C3C00002BE3D17B6802225A63B7F8CE301946B9
:104C4C00786800F044F823E0D7F8E43003F08003F0
:104C5C00002B09D0D7F8E03003F08003002B03D0F1
:104C6C00786800F00EF914E0D7F8E43003F0400354
:104C7C00002B0ED0D7F8E03003F04003002B08D007
:104C8C00786800F04DF904E000BF02E000BF00E0DE
:104C9C0000BFE837BD4680BD80B483B000AF7860FC
:104CAC0000BF0C37BD4680BC704780B483B000AFEA
:104CBC00786000BF0C37BD4680BC704780B483B0B1
:104CCC0000AF786000BF0C37BD4680BC704780B425
:104CDC0083B000AF78600B467B8000BF0C37BD46BD
:104CEC0080BC704780B586B000AFF860B9603B609F
:104CFC001346FB713BE03B6AB3F1FF3F37D0FCF747
:104D0C0083FD02463B68D31A3A6A9A4202D33B6A45
:104D1C00002B01D103233AE0FB681B68DB6803F02E
:104D2C000403002B23D0BB68802B20D0BB68402B06
:104D3C001DD0FB681B681B6803F00803082B16D1F9
:104D4C0000237B61FB681B681B687B61FB681B682D
:104D5C005B687B617B69F86800F01DF8FB680822D2
:104D6C005A64FB68002283F8402001230FE0FB68A3
:104D7C001B681A68BB681340BA689A420CBF0123BF
:104D8C000023DBB21A46FB799A42B4D000231846B2
:104D9C001837BD4680BD80B495B000AF78607B6895
:104DAC001B680C337B637B6B53E8003F3B633B6BB3
:104DBC0023F49073FB647B681B680C33FA6C3A64C5
:104DCC00FB63F96B3A6C41E80023BB63BB6B002BB4
:104DDC00E5D17B681B6814333B623B6A53E8003FA8
:104DEC00FB61FB6923F00103BB647B681B68143314
:104DFC00BA6CFA62BB62B96AFA6A41E800237B6258
:104E0C007B6A002BE5D17B681B6B012B19D17B686E
:104E1C001B680C33FB60FB6853E8003FBB60BB684E
:104E2C0023F010037B647B681B680C337A6CBA61CB
:104E3C007B617969BA6941E800233B613B69002BCE
:104E4C00E5D17B68202283F842207B6800221A631C
:104E5C0000BF5437BD4680BC704780B584B000AFEE
:104E6C0078607B685B6AFB60FB680022DA85FB6814
:104E7C000022DA84F868FFF721FF00BF1037BD4627
:104E8C0080BD80B485B000AF78607B6893F841300A
:104E9C00DBB2212B3ED17B689B68B3F5805F14D1CC
:104EAC007B681B69002B10D17B681B6AFB60FB685D
:104EBC001B881A467B681B68C2F308025A607B6821
:104ECC001B6A9A1C7B681A6208E07B681B6A591C77
:104EDC007A6811621A787B681B685A607B68DB8C75
:104EEC009BB2013B9BB27A681946D184002B0FD13F
:104EFC007B681B68DA687B681B6822F08002DA60CA
:104F0C007B681B68DA687B681B6842F04002DA60D9
:104F1C00002300E0022318461437BD4680BC7047BE
:104F2C0080B582B000AF78607B681B68DA687B68FC
:104F3C001B6822F04002DA607B68202283F8412053
:104F4C007868FFF7A9FE002318460837BD4680BDD8
:104F5C0080B58CB000AF78607B6893F84230DBB2E0
:104F6C00222B40F0AE807B689B68B3F5805F17D135
:104F7C007B681B69002B13D10023FB627B689B6A47
:104F8C00BB627B681B685B689BB2C3F308039AB275
:104F9C00BB6A1A807B689B6A9A1C7B689A6226E0C3
:104FAC007B689B6AFB620023BB627B689B68B3F5E2
:104FBC00805F07D07B689B68002B0AD17B681B69DC
:104FCC00002B06D17B681B685B68DAB2FB6A1A702F
:104FDC0008E07B681B685B68DBB203F07F03DAB226
:104FEC00FB6A1A707B689B6A5A1C7B689A627B68A6
:104FFC00DB8D9BB2013B9BB27A681946D185002BA5
:10500C005DD17B681B68DA687B681B6822F0200224
:10501C00DA607B681B68DA687B681B6822F4807234
:10502C00DA607B681B685A697B681B6822F0010296
:10503C005A617B68202283F842207B6800225A63E5
:10504C007B681B6B012B35D17B6800221A637B6854
:10505C001B680C337B617B6953E8003F3B613B6908
:10506C0023F010037B627B681B680C337A6A3A620C
:10507C00FB61F9693A6A41E80023BB61BB69002B0B
:10508C00E5D17B681B681B6803F01003102B0AD159
:10509C000023FB607B681B681B68FB607B681B68DC
:1050AC005B68FB60FB687B689B8D19467868FFF733
:1050BC000EFE02E07868FFF7F8FD002302E0002303
:1050CC0000E0022318463037BD4680BD80B584B061
:1050DC0000AF78607B681B681B6923F440517B68C8
:1050EC00DA687B681B680A431A617B689A687B687C
:1050FC001B691A437B685B691343BB607B681B6845
:10510C00DB6823F4B05323F00C037A681268B96897
:10511C000B43D3607B681B685B6923F440717B682D
:10512C009A697B681B680A435A617B681B682C4A26
:10513C00934203D1FFF7A4F8F86002E0FFF78CF874
:10514C00F860FA6813469B0013449A001A447B6873
:10515C005B689B00B2FBF3F3224AA2FB03235B09BF
:10516C001901FA6813469B0013449A001A447B6891
:10517C005B689B00B2FBF3F21A4BA3FB02035B09C7
:10518C00642000FB03F3D31A1B013233154AA2FB34
:10519C0003235B0903F0F0031944FA6813469B00E0
:1051AC0013449A001A447B685B689B00B2FBF3F2D1
:1051BC000C4BA3FB02035B09642000FB03F3D31A23
:1051CC001B013233074AA2FB03235B0903F00F02D6
:1051DC007B681B680A449A6000BF1037BD4680BDCF
:1051EC00003801401F85EB5103460244934200D125
:1051FC00704703F8011BF9E770B500260C4D0D4CF8
:10520C00641BA410A64209D100F01AF800260A4D1E
:10521C000A4C641BA410A64205D170BD55F8043B82
:10522C0098470136EEE755F8043B98470136F2E70C
:10523C00A4520008A4520008A4520008A852000866
:10524C00F8B500BFF8BC08BC9E467047F8B500BF67
:08525C00F8BC08BC9E46704737
:105264000000000000000000010203040607080912
:1052740000000000010203040203040506070809F4
:105284000A0B0C0D0E0F101001020000020304059E
:10529400060708090A0B0C0D0E0F1010010200007E
:0452A40031010008CC
:0452A8000D010008EC
:1052AC00030004AABB00000000127A0010000000EA
:0452BC0001000000ED
:0400000508001719BF
:00000001FF
